:020000040800F2
:10000000000400207B020008890200088B0200081F
:100010008D0200088F020008910200080000000015
:100020000000000000000000000000009302000833
:1000300095020008000000009702000899020008DD
:100040009B0200089B0200089B0200089B0200081C
:100050009B0200089B020008551900089B0200083B
:100060009B0200089B0200089B0200089B020008FC
:100070009B0200089B0200089B0200089B020008EC
:100080009B0200089B0200089B0200089B020008DC
:100090009B0200089B0200089B0200089B020008CC
:1000A0009B0200089B0200089B0200089B020008BC
:1000B0009B0200089B0200089B0200089B020008AC
:1000C0009B0200089B0200089B0200089B0200089C
:1000D0009B0200089B0200089B0200089B0200088C
:1000E0009B0200089B0200089B0200089B0200087C
:1000F0009B0200089B0200089B0200089B0200086C
:100100009B0200089B0200089B0200089B0200085B
:100110009B020008612300089B0200089B02000864
:100120009B0200089B0200089B0200089B0200083B
:1001300000F002F800F090F80AA090E8000C824469
:100140008344AAF10107DA4501D100F085F8AFF246
:10015000090EBAE80F0013F0010F18BFFB1A43F0A5
:10016000010318477835000098350000103A24BF85
:1001700078C878C1FAD8520724BF30C830C144BF0C
:1001800004680C607047000000230024002500264E
:10019000103A28BF78C1FBD8520728BF30C148BFEA
:1001A0000B6070476E2900F06D82702900F0C583E6
:1001B000662902F0E485652902F0E185672902F0ED
:1001C000DE856129AFF3008003681B0A28BF41F078
:1001D0008001692900F01A82642900F017827529CC
:1001E00000F014826F2900F05383782900F0918386
:1001F000E92900F0ED82E42900F0EA82F52900F017
:10020000E782EF2900F05083F82900F0908303681B
:10021000DB0928BF41F08001632900F06E82732959
:1002200000F07382E32900F06F86F32900F07486F2
:10023000002070471FB500F0C1FE0400002000211F
:1002400002F0E4FA401C60600020002102F0C8FACD
:10025000E0601FBD10B510BD00F082FE1146FFF733
:10026000E9FF02F09DF900F05BFF03B4FFF7F2FF36
:1002700003BC00F09FFF000070470B4880470B490C
:1002800081F308880A480047FEE7FEE7FEE7FEE73D
:10029000FEE7FEE7FEE7FEE7FEE7FEE70548064964
:1002A000044A064B7047000079020008F0B80020AD
:1002B00031010008F0B00020F0B80020F0B00020BC
:1002C0001CB50C46064B7B4469460090204600F066
:1002D000F2F904460020694600F000FA20461CBDF1
:1002E000130400000FB41CB5084B06AA7B446946F2
:1002F0000090059800F0DFF904460020694600F000
:10030000EDF920461CBC5DF814FB0000ED03000075
:1003100070B50C460546012A05D02878800600D520
:10032000EA69002302E0012305E05B1C934202D24C
:10033000E05C0028F9D1A869E618C01AA861286A0B
:1003400018442862284600F027F904E0D5E9012185
:1003500014F8010B9047B442F8D3284600F032F964
:1003600070BD00002DE9F05F894604464FF0000A99
:10037000DFF874B1FB44C0F820A02046E16888474C
:10038000002874D0252806D0D4E901219047206A9E
:10039000401C2062F1E700265F462046E16888475E
:1003A0002028054607DB312D05D2781910F8200CDE
:1003B00008B10643F1E7B00701D526F00406C4F8FA
:1003C0001CA00027C4F818A02A2D09D0284602F046
:1003D000A1F838B304EB8708303DC8F8185019E08D
:1003E00059F8041B204604EB87029161E1688847B5
:1003F000012F054618D1E069002820DA26F02006F2
:100400001DE0D8F8180000EB800005EB4000303804
:10041000C8F818002046E1688847054602F07AF8D7
:100420000028EED1012F0AD02E2D08D12046E168F8
:1004300088477F1C0546022F46F02006C4DBA069D2
:10044000002803DA404246F00106A061F00701D01F
:1004500026F010066C2D0BD0682D09D04C2D39D00C
:100460006A2D35D0742D35D07A2D33D016E038E092
:10047000E1682F4620468847B842054609D16C2FCF
:1004800026D04FF48060E168064320468847054641
:1004900004E06C2F1AD04FF4807006430DB3A5F121
:1004A0004100192802D8203546F400664A462946FC
:1004B000204626604E46FFF775FE80B101280BD01E
:1004C000F61D26F0070000F1080956E74020E4E792
:1004D0008020D8E70020D6E706F104094DE728463A
:1004E00052E7206ABDE8F09F2232000030B5054691
:1004F0000B462A4613F8014B12F8010B08B1A04233
:10050000F8D01CB1002802D06D1CF1E7284630BDA0
:1005100010B5431C02E010F8011B71B18107FAD13C
:100520004FF0013202C88C1A8C4314EAC211F9D080
:10053000C01A0A0603D0C01E10BDC01A10BD0A049E
:1005400001D0801E10BD0902FCD0401E10BD4FF02E
:1005500000020429C0F0128010F0030C00F0FA81B0
:10056000CCF1040CBCF1020F18BF00F8012BA8BF9E
:1005700020F8022BA1EB0C0100F0ECB95FEAC17C82
:1005800024BF00F8012B00F8012B48BF00F8012B15
:10059000704770477047704770B5044685690068BA
:1005A000C10601D5302600E02026C00707D070BD67
:1005B000D4E9012130469047206A401C20626D1E1C
:1005C000F6D570BD70B5044685690078C00707D1BF
:1005D00070BDD4E9012120209047206A401C206290
:1005E0006D1EF6D570BD09684A0501D540B2704749
:1005F000C905FCD500B2704709684A0501D5C0B2EB
:100600007047C905FCD580B2704700002DE9F04164
:100610000646002410687529314616A510D0FFF74C
:10062000E2FF002802DA404213A507E031688A079A
:1006300001D512A502E0490704D511A5012401E066
:10064000FFF7DAFF00210A2206F1240709E0B0FBD8
:10065000F2FCB0FBF2F302FB1C0030307854184679
:10066000491C0028F3D123462A463046BDE8F04114
:1006700000F0DAB9000000002D0000002B0000009F
:100680002000000011680268006A530501D5087057
:100690000AE0D30501D5088006E0130603D5C2178A
:1006A000C1E9000200E008600120704701694A1CAE
:1006B00002610878704700B58FB0CDE901310021A3
:1006C000059105497944CDE9031011466846FFF7C5
:1006D00049FE0FB000BD0000E5FFFFFF0A6802F809
:1006E000010B0A60704710B5436913B1AFF3008086
:1006F00001E0FFF70DFE012010BD127800F124018A
:100700000A7000224A700122EDE711684FF0FF32B3
:10071000E9E700002DE9FF5F15468A460446DFF849
:10072000AC80F8440027D8E900103E46CDE900101F
:1007300010E03AF816106A4602A800F0F1FB411CDE
:1007400007D02178890603D5E269391891420DD87E
:100750000744761C2078800602D5E069B84205DDA2
:10076000AE42E6DB3AF816000028E2D1A069C01BD1
:10077000A0612046FFF710FFD8E90010CDE9001076
:10078000002017E03AF818106A4602A800F0C8FBEB
:10079000B0F1FF3F81460BD000250DF1080B05E0BD
:1007A000D4E901211BF8050090476D1C4D45F7D396
:1007B00008F10100B0428046E4DB206A3844206240
:1007C0002046FFF7FFFEBDE8FF9F0000862E0000D9
:1007D0002DE9F0418046D21D22F007020025D2E922
:1007E0000002F52915A614D0011E72F1000106DAE7
:1007F0000023D0EB030063EB020211A608E0D8F857
:1008000000108B0701D50FA602E0490701D50EA6FF
:1008100001251146002408F1240704E000F0BFF888
:1008200030323A55641C50EA0102F7D12B46324669
:1008300021464046BDE8F04100F0F6B80000000057
:100840002D0000002B0000002000000030B400212B
:1008500000F1240408E002F00705D208303542EA2E
:100860004372DB086554491C52EA0305F3D104685E
:10087000002310A2250708D504F020040C4304D05F
:10088000C46901230CA2641EC46130BC00F0CCB862
:1008900010B5044621461068FFF7AEFE024620461A
:1008A000BDE810400023D1E7D21D22F00701D1E9B5
:1008B0000023CBE70000000030000000F0B40D463C
:1008C0000188090502D5214C7C4402E01F4C7C4480
:1008D0000E34002100F1240608E002F00F0712098F
:1008E000E75D42EA03721B097754491C52EA030789
:1008F000F3D102780023120704D5702D06D009B178
:10090000022311342246F0BC00F08EB801231034CB
:10091000F8E770B504460D4621461068FFF76CFEF7
:10092000024629462046BDE870400023C6E7D21D96
:1009300022F00703D3E90023C0E70368126843F0FD
:10094000200303600823C3610023B7E7E82C0000FD
:100950004FF0000200B5134694469646203922BF58
:10096000A0E80C50A0E80C50B1F12001BFF4F7AFA3
:10097000090728BFA0E80C5048BF0CC05DF804EB85
:10098000890028BF40F8042B08BF704748BF20F8F3
:10099000022B11F0804F18BF00F8012B704730B5C3
:1009A000B0F10A024FEA900E71F100034EEA817E27
:1009B000B0EB0E0061EB91014FEA101E4EEA017E92
:1009C00010EB0E0041EB11114FEA102E4EEA016EB2
:1009D00010EB0E0041EB11214FEA104E4EEA014E92
:1009E00010EB0E0041EB1141401841F100014FEABC
:1009F000D00040EA41704FEAD10110EB80054FEA88
:100A0000810444EA907444EB01046D1944EB04043E
:100A1000521BA3414FF0000348BF0A3200D530BD3E
:100A2000401C41F1000130BD2DE9F0470D469946CB
:100A30009246044600F124080168880604D5E0695E
:100A400021F01001216000E00120A84201DD471BD8
:100A500000E00027A1697A1902EB0900081AA061D9
:100A60002078C00602D42046FFF796FD002608E055
:100A7000D4E901211AF806009047206A401C761C30
:100A800020624E45F4DB2078C0060AD52046FFF7E9
:100A900083FD06E0D4E9012130209047206A401C04
:100AA0002062381EA7F10107F4DC07E0D4E9012138
:100AB00018F805009047206A401C2062281EA5F106
:100AC0000105F3DC2046FFF77DFD2078000602D506
:100AD0000220BDE8F0870120FBE770472DE9FF4FBA
:100AE0000C461E464FF0FF378BB0D2E90001DDF80F
:100AF00060800A908A46C1F30A5505B93D46002137
:100B000008464FF00000BAF1000F00F4400005DA8B
:100B100000EB80004FF4400101EA50004FEA905989
:100B2000B9F1010F00DDB9460A9850EA4A000ED02B
:100B300044F61050A5F2FF3545432F14B8F1000FCD
:100B40001ED07542291E1EDDC9F100021CE0B8F15D
:100B5000010F4FF0000001D0302103E0F24305E027
:100B60002154401CB042FBDB3046002200212154BE
:100B70000B99C1F80880C1E900200FB0BDE8F08FE3
:100B8000BD1B6D1CDEE74A4600DA694206A800F08C
:100B900059FA06AB93E8070003AB83E80700504619
:100BA0000A9900F00EFB8DE80700A0F500501F38F1
:100BB00000900398002D09DD42F21F014A460844C7
:100BC00003A90390684600F06DFD08E0A0F5005011
:100BD0004A461F3803A90390684600F077FD8DE868
:100BE00007000004000C03D04FF0FF30410800E084
:100BF0001046B8F1000F03D00022009215461EE007
:100C0000751E05D4FFF7CBFE303262556D1EF9D547
:100C1000B3460122084302D000227F1C04E0207862
:100C2000302801D100227F1E002A099786D01DE0BE
:100C3000112D07DAFFF7B3FE303262556D1C50EA12
:100C40000102F5D1084302D00098C8B10EE000219E
:100C5000681E05E0235C625C63542254401E491CFC
:100C60008142F7DBAB46A81B401E0990002004F828
:100C70000B000B98099AC0F80880C0E9002B7CE7AC
:100C800011264FF0000859E72DE9F04F8846044639
:100C9000D21D22F0070191B0D1E90001CDE90A018E
:100CA00001F024FC02460B98C00F01D02D2007E074
:100CB0002068810701D52B2002E0202101EAC00035
:100CC000032A099001D0072A05DB03464146204646
:100CD00000F078F90BE12078800601D5E06900E0AA
:100CE0000620B8F1650F814606D0B8F1660F18D01E
:100CF000B8F1670F70D131E00020B9F1110F009009
:100D000001DB112301E009F101030AAA01A90CA8E2
:100D1000FFF7E4FEDDE90C70002609F101058346CA
:100D200047E001204B4600904FF000470AAA01A976
:100D30000CA8FFF7D3FEDDE90DB00C995D46002647
:100D400010B909F101000D18B9EB050003D4C0F189
:100D5000FF3609F10105A5EB09002BE0B9F1010F00
:100D600001DA4FF001090020B9F1110F0090484657
:100D700001DD112300E003460AAA01A90CA8FFF730
:100D8000ADFEDDE90C704D46002683462078000755
:100D90000AD4AB4500DA5D4601A8012D04DD4119F6
:100DA00011F8011C302907D04F4502DA17F1040F62
:100DB00004DA012082460FE06D1EEEE7002F02DC10
:100DC000ED1B3E4403E0781CA84200DD7D1CB81BEF
:100DD00000F1010A4FF000472078000703D4AA452C
:100DE00001DB4FF0FF3A0021B7F1004F0DF143084E
:100DF0008DF8431024D002202B23002F01DA7F42EC
:100E00002D230A21021EA0F1010000DC5FB197FB37
:100E1000F1FC97FBF1F201FB1C7C17460CF1300C46
:100E200008F801CDEEE7A8F101000370218809055B
:100E300001D5452100E06521A0F1010800F8011C61
:100E400009980FA9A1EB0807FF1D00B10120411966
:100E500001EBEA70A1693844081A401EA0612078AD
:100E6000C00602D42046FFF797FB099828B1D4E9C1
:100E700001219047206A401C20622078C00622D5BC
:100E80002046FFF789FB1EE0002E04DBB34502DDA0
:100E900001A8805D00E03020D4E901219047206A5C
:100EA000401C2062761CAAF101005FEA000A0AD108
:100EB00000F084F8C0680168405CD4E901219047E3
:100EC000206A401C2062281EA5F10105DCDC07E039
:100ED000D4E9012118F8010B9047206A401C2062D8
:100EE000381EA7F10107F3DC2046FFF76BFB032058
:100EF00011B043E610B5436913B1AFF3008001E0D0
:100F0000FFF708FC012010BD128800F12401828443
:100F10000022C2840122EDE711684FF0FF32E9E7B9
:100F200070B516460C46054600F040F8036893F885
:100F30000101012806D0FF2C0FD8185D68B10120EF
:100F40002C7070BDD3F807013246214603F2071317
:100F500003442846BDE8704018474FF0FF3070BD8D
:100F6000754600F0E3F8AE4605006946534620F0AA
:100F70000700854618B020B5FFF790F9BDE820407E
:100F80004FF000064FF000074FF000084FF0000B45
:100F900021F00701AC46ACE8C009ACE8C009ACE8F8
:100FA000C009ACE8C0098D467047000010B500F0DC
:100FB00005F8001D10BD00BF55180000004870471F
:100FC000B0B000202DE9F0411F4604460326016819
:100FD000072A01F4006004DB08B116A505E016A598
:100FE00003E008B115A500E015A521F01000206070
:100FF000A069C01EA0610FB1401EA0612046FFF78E
:10100000CBFA4FB1D4E9012138469047206A401C01
:101010002062C01C206206E0206AFAE7D4E90121C0
:1010200015F8010B9047761EF8D22046FFF7CAFA52
:10103000BDE8F0814E414E006E616E00494E4600A3
:10104000696E66002DE9F047814616468AB033483E
:1010500078440DC88DE80D0030487844801C03ACFE
:101060000DC884E80D0041F69B300844372190FB01
:10107000F1F290FBF1F5A5F1800501FB12041B3C98
:1010800002D56442012000E00020DFF890A08046F5
:101090000027FA44AAF1BE0A0DE0E00709D0324663
:1010A000684607EB47010AEB810100F00FFB8DE872
:1010B000070064107F1C002CEFD1184F7F44AC3F19
:1010C00018E0E80714D007EB04100DF1180A90E8B7
:1010D0000E008AE80E00C068F04201D1981908900D
:1010E000324606A903A800F0F1FA03AB83E8070033
:1010F0006D10641C002DE4D132466946B8F1000F32
:1011000003A802D000F0CEFA01E000F0DFFAC9E94E
:101110000001C9F808200AB0BDE8F08704260000E5
:101120000446AFF300802046FFF79FF80048704761
:1011300090B000204FF0013C50F8042B51F8043BD4
:101140009A4221D1A2EB0C03934313EACC1317D19B
:1011500050F8042B51F8043B9A4215D1A2EB0C0332
:10116000934313EACC130BD150F8042B51F8043BF2
:101170009A4209D1A2EB0C03934313EACC13DBD0C0
:101180004FF00000704700BFD01A01BAB1FA81F1E8
:1011900001F0180122FA01F0CB40C1F12001DBB2CD
:1011A000C0B2C01A2CFA01F3D11A914311EAC3114B
:1011B000E6D1704701491820ABBEFEE726000200C9
:1011C00070475FEA400C08BF91F0000F4FEA8C2394
:1011D0004FEAC12243EA51514FEA1C5018BF00F5B3
:1011E000F0404FEA300018BF41F000415FEA6C5C0C
:1011F00000F02980BCF1FF3F08BF40F080407047FD
:10120000130C06BF12044FF0100C4FF0000C130E1D
:1012100004BF12020CF1080C130F04BF12010CF1F1
:10122000040C930F04BF92000CF1020CD30F04BF07
:1012300052000CF1010C11464FF00002A0F11F000A
:10124000A0EB0C00704711F0004F08BF704731F061
:1012500000413FF4D5AF0B0C06BF09044FF0100C52
:101260004FF0000C0B0E04BF09020CF1080C0B0F21
:1012700004BF09010CF1040C8B0F04BF89000CF1B1
:10128000020CCB0F04BF49000CF1010CCCF1200380
:10129000A0EB0C0022FA03F302FA0CF241EA03017C
:1012A00000F10100704720F07F4C80EA030023F03A
:1012B0007F47ACEB070303F57C5300F0004003F1DC
:1012C000FF032DE980494FEA154B09B44FEA144357
:1012D00025EA0B4E24EA03480FF2042606EB1327F7
:1012E00049083E785FEA320203FB0667C7F500074C
:1012F00007FB06F64FEA54374FEAD64606F10206D8
:1013000007FB066CCCF1005C4FEA1C472CEA074C4B
:1013100007FB06F40CFB06F504EB15464FEA9616A0
:1013200034BF00204FF000404FEAD13706FB07FCE6
:101330004FEA1C4C0CFB0BF7D21B03FB0CF761EBC9
:1013400007010CFB0EF7B0EB074072EB17420CFBEA
:1013500008F734BFA2EB0742B2EB074261EB17413B
:101360004FEA0C444FEA910706FB07FC4FEA1C4C7E
:101370000CFB0BF7B0EBC74072EB573203FB0CF7DB
:1013800034BFA2EBC742B2EBC74261EB57310CFB53
:101390000EF7B0EBC70072EB57720CFB08F734BFC7
:1013A000A2EBC702B2EBC70261EB5771039F4FEA92
:1013B000816141EA921104EBCC044FEAD1374FEA44
:1013C000826206FB07FC42EA90124FEA80604FEA15
:1013D0001C4C0CFB0BF7D21B03FB0CF761EB07015A
:1013E0000CFB0EF7B0EB074072EB17420CFB08F753
:1013F00034BFA2EB0742B2EB074261EB17414FEA61
:101400008C554FEA910704EB9C2406FB07FC4FEA3E
:101410001C4C0CFB0BF7B0EBC74072EB573203FBD5
:101420000CF734BFA2EBC742B2EBC74261EB5731B6
:101430000CFB0EF7B0EBC70072EB57720CFB08F712
:1014400034BFA2EBC702B2EBC70261EB577115EBD9
:101450004C254FEA816141EA92114FEA82624FEADC
:10146000D13742EA901206FB07FC44F100044FEA30
:1014700080604FEA1C4C0CFB0BF7D21B03FB0CF7F4
:1014800061EB07010CFB0EF7B0EB074072EB174264
:101490000CFB08F734BFA2EB0742B2EB074261EB4B
:1014A000174115EB1C154FEA813141EA92414FEA91
:1014B000823242EA90424FEA80304FEA0C7644F1A1
:1014C000000448EA03434EEA0B484FF0000EB2EB2B
:1014D000080C71EB030724BF624639464EEB0E0E33
:1014E0004FF0000B0018524149414BEB0B0BB2EB94
:1014F000080C71EB03077BF1000B24BF62463946F1
:101500004EEB0E0E4FF0000B0018524149414BEBD1
:101510000B0BB2EB080C71EB03077BF1000B24BF44
:10152000624639464EEB0E0E51EA020718BF46F0EE
:10153000010616EB0E7655F1000254F1000103D5B9
:10154000BDE88901BDE80088BDE88901BDE8004823
:10155000B619524141EB0101A3F1010370478080AC
:101560007F7E7D7C7B7A79787776767574737271FD
:1015700071706F6E6E6D6C6C6B6A6A6968686766B5
:1015800066656464636362616160605F5F5E5E5D47
:101590005D5C5C5B5B5A5A595958585757565655BB
:1015A00055555454535352525251515050504F4F1D
:1015B0004F4E4E4D4D4D4C4C4C4B4B4B4A4A4A496D
:1015C00049494848484747474746464645454544B0
:1015D0004444444343434342424242414141002B3D
:1015E00026D4770021D01CB54FEA370703B44FF05B
:1015F00010004FF010014FF000000FBCBDE810408C
:101600000BF1010BBBF1010F08BF5FEA170722BF07
:1016100012F1010211F101014FF0004143F1000309
:1016200000F0004043EA00007047F9D35708DAE7BA
:1016300046EA064613F1400F4FEA16461FDD13F146
:10164000200FDFBF16430A46002120335B42C8D07B
:10165000C3F1200746EA064602FA07F74FEA1646A4
:1016600046EA0706C3F1200722FA03F201FA07F758
:1016700021FA03F14FF0000342EA0702B1E746EA1C
:10168000020646EA06464FEA164646EA0106BCBF8F
:1016900046EA0646360C4FF000034FF000024FF0CA
:1016A00000019EE72DE9C048934630B491E8380028
:1016B00007C831EA400C48BF34EA430C03D5FFF7B2
:1016C000F2FDFFF78CFFF0BCBDE800882DE9C048B3
:1016D000934630B491E8380007C810F0804F08BF37
:1016E00013F0804F03D100F005F8FFF778FFF0BC4E
:1016F000BDE8008820F07F4780EA030023F07F4C9C
:1017000007EB0C03A3F57C5300F00040A3F1FE03AC
:1017100092F0000F00F0B38095F0000F00F077809A
:101720002DE901494FEA11404FEA144621EA0048E9
:1017300000FB06FC24EA064708FB06F607FB08F850
:1017400000FB07F718EB06484CEB164C4FEA124B20
:1017500018EB07484FEA15464CEB174022EA0B4EB0
:101760000BFB06FC25EA06470EFB06F607FB0EFE02
:101770000BFB07F71EEB064E4CEB164C4FF000062A
:101780001EEB074E4CEB174B18EB0B0840F100001B
:1017900018EB0E0B58EB000840F100008F1A4FF0C9
:1017A00000013CBFC943661B14BFB5EB040C00210C
:1017B0003CBFC943F61B4FEA17444EEA8E0E27EA98
:1017C00004454FEA1C4704FB07622CEA074C05FB63
:1017D00007F70CFB05F604FB0CFC16EB074642EB87
:1017E000174216EB0C4642EB1C421BEB060658EB6D
:1017F0000202414146EA9E0601D5BDE80189B619BB
:10180000524141EB0101A3F10103BDE801894FEA17
:1018100014454FEA114724EA054621EA074C05FB27
:1018200007F406FB07F70CFB06F105FB0CFC11EBBC
:10183000074144EB17444FEA124711EB0C4144EBCC
:101840001C4422EA074C05FB07F206FB07F70CFBDA
:1018500006F605FB0CFC16EB074642EB174216EBAF
:101860000C4642EB1C456A1854F1000148BF704712
:10187000B619524141EB0101A3F10103704795F004
:10188000000F37D04FEA11424FEA144721EA0246CF
:1018900024EA074C02FB07F106FB07F70CFB06F4F2
:1018A00002FB0CFC14EB074441EB17414FEA1547D0
:1018B00014EB0C4441EB1C4125EA074C02FB07F5F5
:1018C00006FB07F70CFB06F602FB0CFC16EB0746C3
:1018D00045EB174516EB0C4645EB1C42121951F12E
:1018E000000148BF7047B619524141EB0101A3F115
:1018F000010370474FEA14454FEA114724EA0546B1
:1019000021EA074C05FB07F106FB07F70CFB06F283
:101910004FF0000605FB0CFC12EB074241EB1741B0
:1019200012EB0C4251EB1C4148BF7047921841EB3F
:101930000101A3F10103704710B54FF4487103484A
:10194000FEF705FE00200249088010BD700300204C
:101950000400002010B5052000F004FE03480068D4
:101960000349087001200349086010BD00012242AC
:10197000060000201404014070B504460B46CE1743
:1019800001EB9676C6F38700CE1701EB9676B6107C
:10199000A1EB8606B606350E1C4B9B6943F001038E
:1019A0001A4EB3614FEAB63353F820300F26AE40DB
:1019B000B343174E46F82030334653F8203004FA2C
:1019C00005F61E43124B43F82060124B1B6801269C
:1019D0008E4033430F4E336002F0010343B10D4B91
:1019E0000C331B6801268E4033430A4E0C3633609D
:1019F00002F0020343B1074B08331E6801238B40FA
:101A00001E43044B08331E6070BD000000100240EE
:101A1000080001400004014070B50446002521463D
:101A20000248FEF763FD0546284670BD700300209E
:101A300010B5044621460448FEF758FD08B10120C0
:101A400010BD0020FCE70000700300202DE9F843E2
:101A500001250024012601274FF0010855A200218D
:101A6000084600F0C7FA02E000F034F90546002D00
:101A7000FAD100F0B7F9322000F070FE814620E084
:101A80004FF496724EA14FA000F088F906465148D7
:101A900051A102684846FEF725FC4FF4967248A112
:101AA000484600F07BF907464A484FA1426848463D
:101AB000FEF718FC4FF4967241A1484600F06EF90B
:101AC0008046F01940440028DAD14B484BA1826887
:101AD0004846FEF707FC4FF4967239A1484600F0DD
:101AE0005DF94FF4967236A148A000F057F94B48C3
:101AF000406800904A4843684A484BA102684846FB
:101B0000FEF7F0FB4FF496722DA1484600F046F91F
:101B10004FF496722AA14AA000F040F94FF4967251
:101B200027A14CA000F03AF94FF4967224A152A0DC
:101B300000F034F94FF4967221A155A000F02EF96F
:101B40004FF496721EA155A000F028F94FF496723A
:101B50001BA155A000F022F9484600F0F1FD4FF41A
:101B6000967217A155A000F019F941F2883000F0E3
:101B7000F9FC41F2883000F0F5FCFFF7DDFE51A2E0
:101B80000021084600F036FA00BF514800680028DE
:101B9000FBD0002405E04FF4FA7000F0E3FC601C79
:101BA000C4B2142CF7DB00BF494800680028FBD002
:101BB000BDE8F8836C6F67696E202E2E2E00000042
:101BC0004F4B000041542B434C4F5544454E3D2252
:101BD0006F6E22000800002041542B434C4F5544A7
:101BE00049443D222573220041542B434C4F554418
:101BF00050413D22257322001000002041542B57F4
:101C00004B4D4F443D2225732200000041542B537D
:101C10004F434B41454E3D226F6E22003000002065
:101C2000280000202000002041542B534F434B41FB
:101C30003D222573222C222573222C2573000000BF
:101C400041542B534F434B41534C3D226C6F6E67B5
:101C50002200000041542B554152543D3131353260
:101C600030302C224E4F4E45222C382C312C225213
:101C7000533438352200000041542B41504E3D2250
:101C8000434D4E4554222C22222C222200000000DB
:101C900041542B453D224F4E2200000041542B431E
:101CA0004D4450573D22220041542B53544D53472D
:101CB0003D225553522D474D3322000041542B53A2
:101CC00000000000474D33204953204F4B210000B6
:101CD0000001224210B53C24FFF72EFE00BF2B4826
:101CE000008800F040000028F9D0FA2000F03AFC0B
:101CF0002B20264988800F2000F034FC00BF2348A9
:101D0000008800F040000028F9D02B201F4988806F
:101D10000F2000F027FC00BF1C48008800F04000A6
:101D20000028F9D02B20194988800F2000F01AFCD8
:101D30000FE0642000F016FC15A0FFF779FE00B15B
:101D40000BE013A0FFF774FE18B9052C01DA02208E
:101D500010BD601E80B20400EBD100BFFFF7ECFDA8
:101D600000BF0A48008800F040000028F9D0612038
:101D700006498880962000F0F5FBFFF7DDFD4FF463
:101D8000967204A104A000F009F8E1E700500040B9
:101D9000610000004F4B0000415400002DE9F0416C
:101DA00006460D4614460027FFF7C6FD31460CA037
:101DB00000F0EEFC85B17CB107E00A2000F0D2FB18
:101DC0002846FFF729FE00B103E0601E80B2040040
:101DD000F3D100BF04B901273846BDE8F081000007
:101DE00025730D0010B510E04FF4967208A10AA0FB
:101DF000FFF7D4FF06A0FFF70FFE0446607A3128F4
:101E000002D0607A352800D100E0EDE700BF10BDB8
:101E10002B435245473A000041542B435245473F1C
:101E20000000000010B51248806940F01000104911
:101E300088611048006820F00F000E4908600846CD
:101E4000006840F0080008600846C068C8600222C8
:101E500000211046FFF790FD012200210220FFF72C
:101E60008BFD022306220321184600F00DF910BD58
:101E7000001002400010014070B504460D4608A253
:101E80000321002000F0B6F806A12846FEF72EFB3D
:101E900020B10120207005A000F07AFC70BD000088
:101EA000676574007374617274000000726967681A
:101EB00074202121210D0A0001464906084A926931
:101EC00042F00102064B9A61064A526822F0E06233
:101ED000044B5A601A4652680A435A607047000021
:101EE000001002400000014000B53E48806940F00B
:101EF00010003C4988613C48406820F0FF003A49A6
:101F000048600846406840F0330048600846006872
:101F100020F07F4008600846006840F04C500860A0
:101F20000846C06840F47070C86000202F490860FF
:101F3000322000F013F901202D49C1F89C01AE2098
:101F400000F048F9D52000F045F9802000F042F972
:101F5000A82000F03FF93F2000F03CF9D32000F02A
:101F600039F9002000F036F9402000F033F98D20D7
:101F700000F030F9142000F02DF9202000F02AF9AB
:101F8000022000F027F9A12000F024F9C82000F079
:101F900021F9DA2000F01EF9122000F01BF981204F
:101FA00000F018F9CF2000F015F9D92000F012F94F
:101FB000F12000F00FF9DB2000F00CF9402000F0D8
:101FC00009F9A42000F006F9A62000F003F9AF20DB
:101FD00000F000F9002000F0CDF80021084600F0E4
:101FE000E6F800BD00100240001001409C012242B2
:101FF00000002242F0B505460F46144600260BE0CD
:10200000A819142805DC2278A919C8B2394600F0AD
:1020100037F9641C701CC6B220780028F0D1F0BDDE
:1020200000B5002015490861C860142048610020EF
:102030008861C8610846006840F0010008600846F1
:1020400040680F4908400D494860084600680D493E
:1020500008400A4908600846006820F480200860AB
:102060000846406820F4FE00486000208860002197
:102070004FF0006000F068F800BD00000010024062
:102080000000FFF8FFFFF6FE2DE9F0478046894685
:1020900014461D462046E11704EB9171C1F3870AEF
:1020A000E11704EB91718910A4EB8101CFB20420F8
:1020B00000EBC700C7B2284600F032F8C5F10400B3
:1020C00008FA00F60F20284100EA0900064306F04E
:1020D0000F06202C09DA104801680120A0400143B6
:1020E0004FF0E020C0F800110BE00B48001D006825
:1020F000A4F1200101228A4010434FF0E021C1F8F1
:102100000401064850F82A0006FA07F1084303497B
:1021100041F82A00BDE8F08700E100E000E400E0BB
:102120000146072323EA01021202054B18684FF605
:10213000FF031840034B18431043014B18607047CE
:102140000CED00E00000FA05024A0A400243024B8F
:102150001A60704780FFFF1F08ED00E007E040F2C3
:10216000375100BF0A00A1F10101FBD1401E002838
:10217000F5D1704770B50646002415E004F1B001B2
:10218000C8B200F027F8012000F024F8102000F079
:1021900021F8002504E0304600F046F8681CC5B27E
:1021A000802DF8DB601CC4B2082CE7DB70BD30B5B5
:1021B00004460D4605F1B001C8B200F00BF810213D
:1021C00041EA141000F006F804F00F0000F002F8E5
:1021D00030BD000008210022114B1A60114BC3F8DA
:1021E000A42100BF16E000F0800222B101220C4BB6
:1021F00008331A6003E00022094B08331A600122F9
:10220000074B0C331A6000BF0022064BC3F8A42111
:102210004206100E0A00A1F10103D9B2E3D17047C2
:10222000980122420000224208210122124B1A602A
:1022300000BF0022114BC3F8A42100BF16E000F03C
:10224000800222B101220C4B08331A6003E0002205
:10225000094B08331A600122074B0C331A6000BF88
:102260000022064BC3F8A4214206100E0A00A1F179
:102270000103D9B2E3D17047980122420000224203
:10228000F0B505460F46164600BF7E2D02DD00253F
:10229000781CC7B205EB45014906080E3946FFF721
:1022A00086FFA6F12000C6B2002409E006EB460135
:1022B000054A02EB4101085DFFF7B6FF601CC4B29E
:1022C000062CF3DBF0BD0000822D000830B504467B
:1022D0000025FFF7A5FE2048006840F480301E4925
:1022E000086000BF1C480068400C0028FAD04FF47A
:1022F000806019494860A01EC4B20846406840EAA0
:10230000844048600846406840F480304860134884
:10231000006840F03200114908600F48006840F042
:1023200080700D49086000BF0B480068400E00280F
:10233000FAD00948406840F002000749486005E0CB
:1023400005484068C0F3870505F00305022DF7D165
:102350000020FFF7B1FD30BD001002400020024018
:102360001D49098801F0200109B31B498988C8B2B9
:102370001A49098801F40061C9B91849098801F4AA
:10238000804161B10A2803D00021144A118021E064
:102390001249098841F40041104A11801AE00D28C1
:1023A00006D10E49098841F480410C4A118011E0A0
:1023B0000A490988C1F30D01094A5054074909889F
:1023C000491C064A118011460988B1F5487F01DB96
:1023D00000211180704700000050004004000020E0
:1023E000700300202DE9F05F05460E46300100F035
:1023F00067FB8146384905FB01F000F061FB82462E
:10240000494600F07BFA0746384600F039FB84B2B3
:10241000204600F055FB8346394600F031FC8246E9
:102420004FF0834100F060FB814600F029FB8046BD
:102430004FF6FF7000EA041404EB080084B227484A
:10244000806940F01000254988610846C06940F461
:102450008010C8612248406820F4702020494860FC
:102460000846406840F4302048601E48006820F468
:1024700070601C4908600846006840F4806008608D
:102480001648006940F48010144908610846006944
:1024900020F48010086114480481808942F20C0104
:1024A000084311498881802088824020888208461C
:1024B000808940F4807088810846808940F020003F
:1024C00088810223352201210846FFF7DDFDFFF751
:1024D000A9FCBDE8F09F000040420F000010024040
:1024E000001001400014014000500040490050EA33
:1024F000C12018BF04204A0D18BF40F0010040F26F
:10250000FF72B2EB515F08BF40F00200012808BF24
:102510000520704730380A2801D20120704700207A
:10252000704700004FF0E021096921F004014FF0ED
:10253000E0221161C21700EB5272C2F3C702074BCF
:102540001A701946097801EB4102C2EBC1114FF62E
:10255000FF7202EAC101024A1180704700000020A8
:102560000200002001460D4A12884A434FF0E02342
:102570005A6100229A6101221A6100BF4FF0E022E5
:10258000106900F001021AB100F48032002AF5D07F
:1025900000224FF0E0231A619A6170470200002088
:1025A0000920FFF793FEFFF79FFC4820FFF7BAFFD3
:1025B0004FF4E1312420FFF715FFFFF747FA1FE042
:1025C00010A201210020FFF715FD15E010A2052142
:1025D0000020FFF70FFD0F4A06210020FFF70AFD3C
:1025E0000D48008800F4004030B100200A490880FE
:1025F00008490A48FFF740FC094800680028E5D16F
:10260000DEE7000047505253204953204F4B210032
:102610006161610070030020040000203800002088
:102620000001224270B505460F48007C20B90E49D2
:1026300008688047012070BDB5F5204F11D26909A7
:102640000948C06830F81120002406E00020064B3D
:10265000DB680E1923F81600641C9442F6DB002098
:10266000E9E70220E7E700003C00002000B5094947
:102670004FF42062C868002100F080F805494FF44B
:1026800020428868002100F079F80120014908748F
:1026900000BD00003C0000202DE9F041064600246A
:1026A000A0461A48007C10B91849086880471EB92E
:1026B0004FF0FF30BDE8F081C6F34F1506F01F0064
:1026C00008B1681C85B240F2FF441AE00F48C068A8
:1026D00030F8140020B908F101001FFA80F801E079
:1026E0004FF00008A8450BD1002705E00748C06857
:1026F000E11920F811507F1CAF42F7D36001D9E7F0
:10270000641E002CE2DA4FF0FF30D3E73C000020DB
:102710000022002106E00948C06830F8110000B12D
:10272000521C491CB1F5A06FF5D3642050434FF4FF
:10273000A063B0FBF3F0C0B2704700003C00002083
:1027400070B5044604B970BD03488068251A284650
:10275000FFF768FF00BFF6E73C00002070B50546B4
:102760002846FFF799FF0446601C08B9002070BD99
:10277000014880682044FAE73C00002030B5034659
:1027800001E003F8011B1400A2F10102F9D130BDF0
:102790000FB438B505A800900F48009A0499FDF7CA
:1027A0008FFD002000900C48FDF7B2FE85B200249A
:1027B0000CE000BF0948008800F040000028F9D074
:1027C0000548005D05498880601C84B2AC42F0DB9E
:1027D00038BC5DF814FB00005000002000500040A1
:1027E00010B500290AD00878002807D00548784499
:1027F000FEF7A0FC002801D0002010BD024878445C
:1028000010BD00000E0F0000060F000010B50029DB
:102810000AD00878002807D005487844FEF78AFCDB
:10282000002801D0002010BD0248784410BD0000EF
:10283000FE0E0000F60E000090EA010F48BF81F086
:10284000004100F12E82421A3CBF801A89184FEADB
:10285000D0524FF07F4C1CEA410FA2EBD15318BF6E
:102860009CEA026F00F03B804FF0004C4CEA0020E5
:102870004CEA012121FA03FC10EB0C0C1ED202F1F0
:10288000FF325FEA1C2040EBC25038BF70471CF09B
:102890007F0F4FEA400C18BFBCF17F4F38BF704725
:1028A000C3F12003994008BF20F00100BCF17F4F25
:1028B00038BF7047A0F1C04000F0DDB94FEA3C00DE
:1028C000000A40EBC25028BF1CF0FF0F4FEA400C3B
:1028D000E6D018BFBCF17F4F38BF7047EAE79CEAEB
:1028E000026F05D010EA5C0F08BF00F0004070478F
:1028F00010B500F07AF900BF64FBBE3E4FF47F0CC8
:102900001CEAD0121EBF1CEAD11392EA0C0F93EA04
:102910000C0F00F0858090EA010F48BF42F48072EE
:1029200040F4000C41F400002CF07F4120F07F4087
:1029300000B58142A2EB03020FF2081CACEB504E33
:10294000C0F100009EF800E04FEA4E0E00FB0EFCC6
:1029500038BF49004FEA2C1C02F5FA020CFB0EF3BB
:102960004FEACE1E4FEA112C4FEAC1210EEB635EF7
:1029700042EB22420EFB0CFC4FEA1C5300FB0311FE
:102980004FEA112C4FEA01310EFB0CFC4FEADC4CF4
:1029900000FB0C11C14228BF09184CEB03335DF852
:1029A00004EB10EB410143EBC250B2F57C0F38BF92
:1029B000704729D512F0F00F1CBF00F1C04000F0A5
:1029C00000407047008182838485868788898B8C4C
:1029D0008D8E8F919293959697999A9C9D9FA0A288
:1029E000A3A5A7A8AAACAEB0B2B3B5B7B9BCBEC0D8
:1029F000C2C5C7C9CCCED1D4D7D9DCDFE2E6E9EC79
:102A0000F0F3F7FAFE0000004FEA400C0CF1807C76
:102A1000BCF17E4F28BF7047B0F1C04000F02BB929
:102A200090EA010F0CEAD11348BF42F4807262456C
:102A300038BF634507D213F47F0F16D080EA010038
:102A400000F00040704710B500F0CFF8097EFC3E62
:102A500000F005B880EA010000F00040704780EA0D
:102A6000010000F0004000F006B912F47F0F04BF2F
:102A70000248704780EA010000F0FDB80000C07F06
:102A8000C10DD1F19E0206DB4FEA002343F0004363
:102A900023FA02F07047004207D54FEA4001B1F136
:102AA000FE4F02D24FF00000704710B500F09DF8C5
:102AB00049922480002070476FEA20007047000090
:102AC000B0FA80F310FA03F2C3F19D030AD0D905DE
:102AD00001EB1220530638BF704700F1010008BF18
:102AE00020F00100704700004FF47F0C1CEAD01268
:102AF0001EBF1CEAD11392EA0C0F93EA0C0F00F0F0
:102B0000478090EA010F48BF42F480724FF0004CBA
:102B10004CEA00204CEA012102EB0302A0FB011366
:102B2000A2F50002002918BF43F001035B0028BF93
:102B30004FEA330342EB22425FEA132C4CEBC250C4
:102B40002EBFBCEB436FB2F57C0F70474FEA036CAE
:102B5000BCF1004F08BF20F00100B2F57C0F38BF78
:102B600070470BD582F0FF0212F5803FC8BF704757
:102B700000F1C040D8BF00F00040704700F5000CE5
:102B80005FEA4C0C48BF7047B0F1C04000F073B82A
:102B900090EA010F0CEAD11348BF42F480726245FB
:102BA00038BF634504D280EA010000F0004070475E
:102BB00010B500F01AF800BF8900013E00F007B818
:102BC00000F009B85FEA410C5FEA1C6C08D080EAAB
:102BD000010000F050B85FEA400C5FEA1C6CF6D1CF
:102BE0004FF00040A0F5800070470EF1020E2EF06D
:102BF000030E5EF8044B244204D44FEA4102B2F1C2
:102C00007F4F11D84FEA4003B3F17F4F0CD80ED15C
:102C10004FEAD07CB2F17F4F0CEB4C0C0CF1020C64
:102C200008BF4CEBD17C04E04FF0080C01E04FEA08
:102C3000D17C0CEB4C0324FA03F404F00704B4F148
:102C4000040C06D20EEB840CBDE810404CF0010CD5
:102C50006047DFE80CF0070802024FF00040A0F5E3
:102C6000800010BD0846420018BFD2F1807288BFB4
:102C700000F0004010BDFF2141EAD050C005704770
:102C800080F0004090EA010F7FF5DDAD81F000415A
:102C900000F007B890EA010F48BF81F000413FF50E
:102CA000D2AD421A04D882F00042A0EB02001144D7
:102CB0004FEAD0524FF07F4C1CEA410FA2EBD153A8
:102CC00018BF9CEA026F4AD04FF0004C4CEA00203B
:102CD0004CEA012121FA03FCB0EB0C0C0FD412F0EA
:102CE000FE0F36D05FEA4C001DD5001240EBC250FB
:102CF00038BF70471CF03F0F18BF70470BE0A2F1C0
:102D000001025FEA1C2040EBC25038BF70471CF044
:102D10007F0F18BF7047C3F12003994014BF401EB6
:102D200020F00100704780084FEA122308BF704767
:102D3000B0FA80FCA2EB0C02CCF1280C60FA0CF08B
:102D400093EA122F04BF00EBC25070474FEAC370E2
:102D50007047130A5FEADC1008BF7047F6E79CEA89
:102D6000026F04D010EA5C0F08BF0020704710B556
:102D7000FFF73BFF40DFF63E81F000407047FDF774
:102D800083BF0000000000000000002F00000000D2
:102D90000700070000147F147F1400242A7F2A12E2
:102DA00000626408132300364955225000000503D1
:102DB000000000001C224100000041221C00001401
:102DC000083E08140008083E0808000000A0600043
:102DD00008080808080800006060000000201008CB
:102DE0000402003E5149453E0000427F400000423F
:102DF00061514946002141454B31001814127F10A2
:102E0000002745454539003C4A49493000017109D0
:102E1000050300364949493600064949291E000084
:102E200036360000000056360000081C2A49080803
:102E30000014141414140808492A1C080002015133
:102E4000090600324959513E007C1211127C007F64
:102E500049494936003E41414122007F4141221CFF
:102E6000007F49494941007F09090901003E414964
:102E7000497A007F0808087F0000417F4100002058
:102E800040413F01007F08142241007F4040404004
:102E9000007F020C027F007F0408107F003E41414A
:102EA000413E007F09090906003E4151215E007F35
:102EB000091929460046494949310001017F0101AC
:102EC000003F4040403F001F2040201F003F40384F
:102ED000403F00631408146300070870080700618E
:102EE0005149454300007F41410000552A552A556C
:102EF000000041417F000402FF020400002040FF67
:102F00004020000001020400002054545478007F47
:102F10004844443800384444442000384444487FFE
:102F200000385454541800087E0901020018A4A463
:102F3000A47C007F080404780000447D4000004029
:102F400080847D00007F102844000000417F400005
:102F5000007C04180478007C080404780038444499
:102F6000443800FC242424180018242418FC007C75
:102F70000804040800485454542000043F444020EE
:102F8000003C4040207C001C2040201C003C403085
:102F9000403C004428102844001CA0A0A07C004411
:102FA00064544C4414141414141400000000000061
:102FB00000000000000000000000000000F8000019
:102FC0000000000000333000000000100C06100C60
:102FD0000600000000000000000040C07840C078FB
:102FE0004000043F04043F040400007088FC0830E3
:102FF0000000001820FF211E0000F008F000E0187B
:10300000000000211C031E211E0000F00888700033
:1030100000001E2123241927211010160E00000085
:1030200000000000000000000000000000E01804A4
:103030000200000000071820400000020418E00011
:1030400000000040201807000000404080F0804051
:1030500040000202010F01020200000000F0000027
:1030600000000101011F010101000000000000003B
:10307000000080B0700000000000000000000000B0
:103080000000000101010101010100000000000039
:1030900000000030300000000000000000008060F0
:1030A0001804006018060100000000E01008081075
:1030B000E000000F102020100F00001010F800009A
:1030C00000000020203F2020000000700808088831
:1030D0007000003028242221300000300888884801
:1030E00030000018202020110E000000C02010F831
:1030F000000000070424243F240000F80888880802
:1031000008000019212020110E0000E01088881806
:103110000000000F112020110E0000380808C838E8
:1031200008000000003F00000000007088080888C8
:103130007000001C222121221C0000E01008081051
:10314000E0000000312222110F00000000C0C0008A
:10315000000000000030300000000000008000008F
:10316000000000008060000000000000804020108F
:103170000800000102040810200040404040404088
:1031800040000404040404040400000810204080EB
:103190000000002010080402010000704808080820
:1031A000F0000000003036010000C030C828E810F0
:1031B000E0000718272423140B000000C038E000AB
:1031C0000000203C23020227382008F888888870F5
:1031D0000000203F202020110E00C0300808080801
:1031E0003800071820202010080008F808080810E8
:1031F000E000203F202020100F0008F88888E80811
:103200001000203F20202320180008F88888E808B4
:103210001000203F200003000000C03008080838DC
:10322000000007182020221E020008F808000008ED
:10323000F808203F210101213F20000808F8080874
:1032400000000020203F2020000000000808F808AF
:103250000800C08080807F00000008F888C028181F
:103260000800203F20012638200008F80800000050
:103270000000203F20202020300008F8F800F8F857
:103280000800203F003F003F200008F830C0000841
:10329000F808203F200007183F00E0100808081039
:1032A000E0000F10202020100F0008F80808080880
:1032B000F000203F210101010000E0100808081083
:1032C000E0000F18242438504F0008F888888888B8
:1032D0007000203F2000030C302000708808080890
:1032E00038000038202121221C00180808F808089E
:1032F00018000000203F2000000008F80800000827
:10330000F808001F202020201F000878880000C82F
:103310003808000007380E010000F80800F800081F
:10332000F800033C0700073C030008186880806829
:10333000180820302C03032C30200838C800C83867
:1033400008000000203F2000000010080808C838CE
:1033500008002038262120201800000000FE02026C
:1033600002000000007F40404000000C30C0000020
:103370000000000000010638C00000020202FE004A
:103380000000004040407F000000000004020202F4
:103390000400000000000000000000000000000029
:1033A0000000808080808080808000020204000015
:1033B000000000000000000000000000808080800D
:1033C00000000019242222223F2008F800808000FB
:1033D0000000003F112020110E00000000808080BE
:1033E0000000000E112020201100000000808088C5
:1033F000F800000E112020103F2000008080808007
:103400000000001F222222221300008080F0888802
:1034100088180020203F202000000000808080804D
:103420008000006B94949493600008F80080808082
:103430000000203F210000203F20008098980000DD
:1034400000000020203F202000000000008098980D
:10345000000000C08080807F000008F800008080AD
:103460008000203F24022D302000000808F80000D2
:1034700000000020203F202000008080808080808D
:103480008000203F20003F20003F8080008080801F
:103490000000203F210000203F200000808080802D
:1034A0000000001F202020201F008080008080005E
:1034B000000080FFA12020110E000000008080800D
:1034C0008000000E112020A0FF808080800080807E
:1034D000800020203F2120000100000080808080AB
:1034E00080000033242424241900008080E08080A0
:1034F00000000000001F20200000808000000080ED
:103500008000001F202020103F208080800000804D
:10351000808000010E30080601008080008000805D
:1035200080800F300C030C300F0000808000808002
:1035300080000020312E0E3120008080800000802D
:10354000808080818E7018060100008080808080DD
:1035500080000021302C2221300000000000807CFF
:10356000020200000000003F404000000000FF0099
:10357000000000000000FF0000000002027C80004C
:1035800000000040403F000000000000000000007C
:10359000808000000000000001010400000800001D
:1035A0000000000000020001000010000000000008
:1035B000000000003031323334353637383941427B
:1035C0004344454640305800303132333435363785
:1035D00038396162636465664030780002400000FB
:1035E000000000A00000000005400000000000C82E
:1035F000000000000C4000000000409C00000000A3
:10360000194000000020BCBE000000003440000053
:10361000BFC91B8E00000004B5400000504BCFD046
:103620006607E2CF010000006C4100003E8251AA13
:10363000DFEEA73401000000D9420000DCB5A0E2B3
:103640003A301F97FFFFFFFFB4450000FD25A0C8DB
:10365000E9A3C14FFFFFFFFFFF3F00000000008014
:1036600000000000FF3F000000000080000000009C
:1036700031353030300000003030303035363738BA
:1036800030303030303030303030303100000000F9
:1036900032333137000000003132333435363738B9
:1036A00000000000434D44004854545044000000C2
:1036B0005443500055445000534D53004E45540060
:1036C000636C6F75642E7573722E636E000000005C
:1036D000746573742E7573722E636E00283800083B
:1036E00000000020500000006C010008783800083D
:1036F00050000020A0B80000880100081C00000055
:1037000043000000F8FFFFFF0C0000000E00000067
:103710000F0000002E000000100100004300000018
:10372000F8FFFFFF004040404040404040404141E2
:103730004141414040404040404040404040404086
:103740004040404040050202020202020202020220
:10375000020202020220202020202020202020021D
:1037600002020202020290909090909010101010AD
:103770001010101010101010101010101010101049
:1037800002020202020288888888888808080808DD
:1037900008080808080808080808080808080808A9
:1037A00002020202400000000000000000000000D1
:1037B0000000000000000000000000000000000009
:1037C00000000000000000000000000000000000F9
:1037D00000000000000000000000000000000000E9
:1037E00000000000000000000000000000000000D9
:1037F00000000000000000000000000000000000C9
:1038000000000000000000000000000000000000B8
:1038100000000000000000000000000000000000A8
:103820000000000000000000000000000000000098
:103830007836000898360008A4360008B836000824
:10384000BC360008A8360008B0360008B4360008B8
:10385000D0360008C03600089036000870360008E0
:10386000000000006D2600081127000890060020C7
:0838700090A6002000000000FA
:0400000508000131BD
:00000001FF
